:020000040800F2
:1000000000800120C1370008593700085B3700081D
:100010005D3700085F370008613700080000000006
:10002000000000000000000000000000633700082E
:1000300065370008000000006737000869370008CE
:10004000113800081138000811380008113800086C
:10005000113800081138000811380008113800085C
:10006000113800081138000811380008113800084C
:10007000113800081138000811380008113800083C
:10008000113800081138000811380008000000007D
:10009000000000000000000000000000113800080F
:1000A000113800081138000811380008113800080C
:1000B00011380008113800081138000811380008FC
:1000C00011380008113800081138000811380008EC
:1000D000113800081138000811380008000000002D
:1000E000113800081138000811380008000000001D
:1000F00000000000000000000000000011380008AF
:1001000000000000113800081138000811380008FC
:1001100000000000000000000000000000000000DF
:10012000113800081138000811380008113800088B
:10013000113800080000000000000000000000006E
:10014000000000000000000000000000113800085E
:10015000113800081138000811380008113800085B
:1001600011380008113800080000000000000000ED
:10017000000000000000000000000000000000007F
:10018000000000001138000800000000000000001E
:04019000113800081A
:1001940010B5054C237833B9044B13B10448AFF3BD
:1001A40000800123237010BD100000200000000017
:1001B4005C38000808B5034B1BB103490348AFF38F
:1001C400008008BD00000000140000205C38000816
:1001D40053B94AB9002908BF00281CBF4FF0FF31AA
:1001E4004FF0FF3000F072B9ADF1080C6DE904CEA8
:1001F40000F006F8DDF804E0DDE9022304B07047FE
:100204002DE9F047089E04468846002B4BD18A42CC
:10021400154667D9B2FA82F24AB1C2F1200701FA4F
:1002240002F320FA07F7954047EA030894404FEA9F
:10023400154E230CB8FBFEF71FFA85FC0EFB17883E
:1002440043EA084307FB0CF1994209D9EB1807F17B
:10025400FF3080F01B81994240F21881023F2B4409
:100264005B1AA4B2B3FBFEF00EFB103344EA034462
:1002740000FB0CFCA44509D92C1900F1FF3380F0D4
:100284000781A44540F2048102382C4440EA074027
:10029400A4EB0C0400271EB1D4400023C6E900439C
:1002A4003946BDE8F0878B4209D9002E00F0EB8077
:1002B4000027C6E9000138463946BDE8F087B3FA9D
:1002C40083F7002F47D18B4202D3824200F2FA8097
:1002D400841A61EB030301209846002EE0D0C6E99E
:1002E4000048DDE702B9FFDEB2FA82F2002A40F0EC
:1002F4008F80491B4FEA154E1FFA85F80127B1FB81
:10030400FEFC230C0EFB1C1143EA014308FB0CF119
:10031400994207D9EB180CF1FF3002D2994200F24E
:10032400CD808446591AA3B2B1FBFEF00EFB101423
:1003340043EA044408FB00F8A04507D92C1900F14E
:10034400FF3302D2A04500F2B6801846A4EB08049D
:1003540040EA0C409FE7C7F1200CBB4022FA0CFE98
:100364004EEA030E01FA07F420FA0CF521FA0CF315
:100374004FEA1E482543B3FBF8F92C0C08FB19334C
:100384001FFA8EFA44EA034309FB0AF49C4202FA78
:1003940007F200FA07F10BD91EEB030309F1FF3052
:1003A40080F087809C4240F28480A9F10209734462
:1003B4001B1BADB2B3FBF8F008FB103345EA034452
:1003C40000FB0AFAA24508D91EEB040400F1FF332E
:1003D4006BD2A24569D90238744440EA0940A0FBB3
:1003E4000289A4EB0A044C45C2464B4654D351D06F
:1003F400002E69D0B1EB0A0564EB030404FA0CFC8B
:10040400FD40FC404CEA0505C6E90054002747E7D7
:10041400C2F1200320FA03F7954001FA02F021FA11
:1004240003F34FEA154E3843010CB3FBFEF71FFAF2
:1004340085F80EFB173341EA034107FB08F38B42AF
:1004440004FA02F407D9691807F1FF3C2FD28B4252
:100454002DD9023F2944CB1A81B2B3FBFEF00EFB27
:10046400103341EA034100FB08F38B4207D96918B2
:1004740000F1FF3C17D28B4215D902382944C91A1E
:1004840040EA07473BE73746304609E70746E7E6D1
:100494001846FBE64145ABD2B8EB020A69EB0E0203
:1004A40001381346A4E76046E9E7184695E767462E
:1004B400D1E781467CE702382C4447E7ACF1020CD3
:1004C4002B442FE7384608E73746E9E6704700BF74
:1004D40010B504460E4B18784FF47A73B3FBF0F35F
:1004E4000C4A1068B0FBF3F000F09CF868B90F2CCC
:1004F40001D901200AE0002221464FF0FF3000F02C
:100504005DF8034B5C60002000E0012010BD00BFDB
:10051400000000200C00002008B50B4B1A6842F4C0
:1005240000721A601A6842F480621A601A6842F40F
:1005340080721A60032000F02FF80020FFF7C8FF34
:1005440003F088F8002008BD003C0240034A11680B
:10055400034B1B780B441360704700BF60000020FE
:1005640000000020014B1868704700BF60000020A5
:1005740038B50446FFF7F6FF0546B4F1FF3F02D055
:10058400044B1B781C44FFF7EDFF401BA042FAD339
:1005940038BD00BF00000020074AD36823F4E0639D
:1005A4001B041B0C000200F4E060184340F0BF6021
:1005B40040F40030D060704700ED00E030B4174BD9
:1005C400DB68C3F30223C3F10704042C28BF04240B
:1005D4001D1D062D18D9033B4FF0FF3505FA04F411
:1005E40021EA0401994005FA03F322EA03031943BB
:1005F40000280BDB0901C9B200F1604000F561403D
:1006040080F8001330BC70470023E5E700F00F00CA
:100614000901C9B2024B1954F4E700BF00ED00E030
:1006240014ED00E00138B0F1807F0AD2064B586027
:10063400064AF02182F823100020986007221A60ED
:1006440070470120704700BF10E000E000ED00E0BB
:10065400042805D0054A136823F004031360704787
:10066400024A136843F004031360704710E000E08B
:10067400704708B5FFF7FCFF08BD000000230F2BEF
:1006840000F2C580F0B482B039E0042200E0002218
:10069400B2403A4302345E4E46F824205D4A146860
:1006A400EA4302EA04064F6817F4803F01D045EAA2
:1006B4000406584C2660646802EA04064F6817F47E
:1006C400003F01D045EA0406524C6660A46802EA81
:1006D40004064F6817F4801F01D045EA04064D4C08
:1006E400A660E46822404E6816F4001F01D045EA73
:1006F4000402484CE26001330F2B00F28580012292
:100704009A400C6804EA0205AA42F4D14C68022C0F
:1007140001D0122C10D1DE08083650F826C003F0A0
:100724000704A7000F24BC402CEA040C0C69BC404D
:1007340044EA0C0440F8264004685F000326BE40E7
:10074400F64306EA040C4C6804F00304BC4044EA93
:100754000C0404604C6804F1FF3CBCF1010F03D9A4
:10076400112C01D0122C10D1846806EA040CCC6838
:10077400BC4044EA0C048460446824EA02024C68E5
:10078400C4F300149C4014434460C26816408A6851
:10079400BA403243C2604A6812F0805FABD0002294
:1007A40001921D4A546C44F480445464526C02F423
:1007B40080420192019A9C08A61C154A52F82670A0
:1007C40003F0030296000F22B24027EA0207134AFD
:1007D40090423FF45CAF02F5806290420ED002F585
:1007E400806290420CD002F5806290420AD002F5F9
:1007F400806290423FF449AF072249E7012247E76C
:10080400022245E7032243E702B0F0BC7047704779
:1008140000380140003C0140003802400000024022
:10082400002800F0BB8170B582B00446036813F061
:10083400010F3BD0A74B9B6803F00C03042B2CD077
:10084400A44B9B6803F00C03082B21D06368B3F519
:10085400803F4FD0B3F5A02F52D09E4B1A6822F49C
:1008640080321A601A6822F480221A606368002BAE
:1008740050D0FFF777FE0546964B1B6813F4003FF4
:1008840014D1FFF76FFE401B6428F5D903208AE1D9
:10089400904B5B6813F4800FD8D08E4B1B6813F415
:1008A400003F03D06368002B00F07A81236813F0C3
:1008B400020F55D0874B9B6813F00C0F3ED0854B2D
:1008C4009B6803F00C03082B33D0E368002B68D03B
:1008D400814B01221A60FFF745FE05467D4B1B68DC
:1008E40013F0020F54D1FFF73DFE401B0228F5D947
:1008F400032058E1774A136843F480331360B5E763
:10090400744B1A6842F480221A601A6842F48032E6
:100914001A60ABE7FFF726FE05466E4B1B6813F41F
:10092400003FC3D0FFF71EFE401B6428F5D9032007
:1009340039E1684B5B6813F4800FC6D1654B1B68C3
:1009440013F0020F04D0E368012B01D001202AE147
:10095400604A136823F0F803216943EAC103136072
:10096400236813F0080F40D0636963B35B4B012223
:100974001A60FFF7F7FD0546564B5B6F13F0020F45
:1009840033D1FFF7EFFD401B0228F5D903200AE11C
:10099400504A136823F0F803216943EAC103136042
:1009A400DEE74D4B00221A60FFF7DCFD0546494B9C
:1009B4001B6813F0020FD3D0FFF7D4FD401B0228AD
:1009C400F5D90320EFE0454B00221A60FFF7CAFD7A
:1009D4000546404B5B6F13F0020F06D0FFF7C2FDD4
:1009E400401B0228F5D90320DDE0236813F0040F2F
:1009F40079D0384B1B6C13F0805F33D10023019303
:100A0400344B1A6C42F080521A641B6C03F080530E
:100A14000193019B0125324B1B6813F4807F23D083
:100A2400A368012B34D0052B38D02A4B1A6F22F03F
:100A340001021A671A6F22F004021A67A368002BD6
:100A440036D0FFF78FFD0646224B1B6F13F0020FC3
:100A540048D1FFF787FD801B41F288339842F3D9D0
:100A64000320A0E00025D6E71D4A136843F48073F1
:100A74001360FFF777FD0646194B1B6813F4807F5C
:100A8400CED1FFF76FFD801B0228F5D903208AE041
:100A9400104A136F43F001031367CFE70D4B1A6F2E
:100AA40042F004021A671A6F42F001021A67C5E79E
:100AB400FFF758FD0646074B1B6F13F0020F11D0CA
:100AC400FFF750FD801B41F288339842F3D903208D
:100AD40069E000BF0038024000004742800E4742F0
:100AE40000700040E5B9A369002B5BD0304A9268DE
:100AF40002F00C02082A58D0022B17D02D4B0022EA
:100B04001A60FFF72FFD0446294B1B6813F0007F82
:100B140042D0FFF727FD001B0228F5D9032042E04D
:100B2400234A136C23F080531364DCE7214B002227
:100B34001A60FFF717FD05461D4B1B6813F0007F75
:100B440006D0FFF70FFD401B0228F5D903202AE049
:100B5400E369226A1343626A43EA8213A26A52086F
:100B6400013A43EA0243E26A43EA0263104A5360E9
:100B7400104B01221A60FFF7F5FC04460C4B1B686E
:100B840013F0007F06D1FFF7EDFC001B0228F5D916
:100B9400032008E0002006E0002004E00120704764
:100BA400012000E0002002B070BD0120FBE700BF7F
:100BB4000038024060004742324B9B6803F00C034C
:100BC400042B5CD0082B01D02F4870472DE9F04B43
:100BD4002C4B5A6802F03F025B6813F4800F2BD051
:100BE400284B5B68C3F388131E4600275C0100256D
:100BF400E41A65EB0705A90141EA9461A001001B11
:100C040061EB0501CB0043EA5073C400A01943EB28
:100C140007014B0243EAD0534402204619460023FD
:100C2400FFF7D6FA174B5B68C3F3014301335B004C
:100C3400B0FBF3F0BDE8F08B124B5B68C3F3881391
:100C44001E4600275C010025E41A65EB0705A9018F
:100C540041EA9461A001001B61EB0501CB0043EA6A
:100C64005073C400A01943EB07018B0243EA90536D
:100C74008402204619460023FFF7AAFAD2E7034864
:100C8400704700BF003802400024F40000127A00CC
:100C9400002800F09D8070B504464F4B1B6803F09C
:100CA4000F038B4209D2CBB24B4A1370136803F083
:100CB4000F038B4201D0012070BD236813F0020F93
:100CC40017D013F0040F04D0444A936843F4E0535C
:100CD4009360236813F0080F04D0404A936843F4E8
:100CE400604393603D4A936823F0F003A068034394
:100CF40093600D46236813F0010F32D06368012B13
:100D040021D09A1E012A25D9344A126812F0020F02
:100D140060D032498A6822F0030213438B60FFF7E4
:100D240021FC06462D4B9B6803F00C036268B3EB71
:100D3400820F16D0FFF716FC801B41F288339842CD
:100D4400F0D90320B8E7254A126812F4003FE0D135
:100D54000120B1E7214A126812F0007FD9D10120A5
:100D6400AAE71D4B1B6803F00F03AB4209D9EAB293
:100D7400194B1A701B6803F00F03AB4201D001201A
:100D84009AE7236813F0040F06D0144A936823F4F7
:100D9400E053E1680B439360236813F0080F07D016
:100DA4000E4A936823F46043216943EAC1039360C4
:100DB400FFF702FF094B9B68C3F30313084AD35C94
:100DC400D840084B18600020FFF782FB002073E72F
:100DD4000120704701206FE7003C024000380240C8
:100DE400283900080C000020014B1868704700BF28
:100DF4000C00002070B582B0044600230193006803
:100E040000F0FCFE054610B1284602B070BD206813
:100E140000F007FF064610B30023A3642E46DEB994
:100E2400019B5A1C01924FF6FF72934244D0002159
:100E3400206800F00DFF002841D10021206800F057
:100E44001FFF064600283DD10021206800F015FD53
:100E5400C00FE4D00646E2E700236364D4E701232D
:100E6400A3640546EDB9019B5A1C01924FF6FF722B
:100E740093422AD00021206800F0EAFE05460028AB
:100E8400C2D14FF08041206800F0FAFE05460028E8
:100E9400BAD10021206800F0F0FCC30FE2D01D4657
:100EA400E0E710F0804F03D1002363643546ABE7DD
:100EB400012363643546A7E74FF08075A4E74FF03C
:100EC4008055A1E74FF080559EE74FF080759BE772
:100ED40070B581B10D460446016D0904006800F047
:100EE4002AFF064608B1304670BD0021206800F094
:100EF400C4FC2860F7E74FF00066F4E72DE9F043FF
:100F040087B004460D4616461F46FFF72BFB6DB10E
:100F1400804694F83430DBB2012B0DD0A36B43F040
:100F24000053A363012007B0BDE8F083A36B43F033
:100F34000063A3630120F6E70023A363F319E26DC2
:100F440093421BD8032384F8343023680022DA62E6
:100F5400636C012B00D076024FF40071206800F01E
:100F6400A3FD034680B1226840F2FF519163A06B58
:100F74001843A063012084F83400D4E7A36B43F042
:100F84000073A3630120CEE74FF0FF3300937B028D
:100F940001939023029302230393002304930123D8
:100FA40005936946206800F06DFD012F15D90223D1
:100FB40023633146206800F0A7FD8146B9F1000F94
:100FC40025D0236840F2FF529A63A36B43EA0903D6
:100FD400A363012084F83400A5E701232363314689
:100FE400206800F079FD8146E8E7206800F020FCE5
:100FF40045F826000136072EF7D920350E9B93B10C
:10100400FFF7B0FAA0EB08000E9B98420BD22068C1
:10101400426B40F22A331A4212D1436B13F4004F4D
:10102400ECD04E46E7E7236840F2FF529A63A36B85
:1010340043F00043A363012384F83430032072E7B0
:10104400436B13F4807F07D0012F05D9636C032B06
:1010540002D000F0A1FD50BB23685A6B12F0080FB8
:1010640030D15A6B12F0020F37D15A6B12F0200FA5
:101074003ED12068436B13F4001F44D000F0D8FB2A
:1010840045F8040B0E9B33B1FFF76CFAA0EB080094
:101094000E9B9842EDD3236840F2FF529A63A36BF0
:1010A40043F00043A363012084F834003BE7236842
:1010B40040F2FF519963A36B0343A363012084F8B7
:1010C400340030E740F2FF529A63A36B43F0080305
:1010D400A363012084F8340025E740F2FF529A63A9
:1010E400A36B43F00203A363012084F834001AE7DE
:1010F40040F2FF529A63A36B43F02003A3630120E1
:1011040084F834000FE740F2FF538363012384F82B
:101114003430002007E72DE9F04387B004460D463C
:1011240016461F46FFF71EFA6DB1804694F8343018
:10113400DBB2012B0DD0A36B43F00053A36301205A
:1011440007B0BDE8F083A36B43F00063A363012001
:10115400F6E70023A363F319E26D934228D803232F
:1011640084F8343023680022DA62636C012B00D0E7
:1011740076024FF40071206800F096FC0346E8B94B
:10118400012F26D9202323633146206800F0ECFC8C
:101194008146B9F1000F24D0236840F2FF529A63CC
:1011A400A36B43EA0903A363012084F83400C7E76F
:1011B400A36B43F00073A3630120C1E7226840F2EC
:1011C400FF519163A06B1843A063012084F834009D
:1011D400B6E7102323633146206800F0ADFC814656
:1011E400D7E74FF0FF3300937B02019390230293E0
:1011F400002303930493012305936946206800F0B8
:1012040041FC11E005EB8601206800F014FB013677
:10121400072EF7D920350E9B93B1FFF7A3F9A0EB66
:1012240008000E9B98420BD22068426B40F21A339E
:101234001A4212D1436B13F4804FECD04E46E7E7C9
:10124400236840F2FF529A63A36B43EA0903A36342
:10125400012384F83430032072E7436B13F4807F56
:1012640007D0012F05D9636C032B02D000F094FC46
:10127400B8B923685A6B12F0080F1DD15A6B12F0DB
:10128400020F24D15A6B12F0100F2BD040F2FF52F0
:101294009A63A36B43F01003A363012084F8340022
:1012A4004EE7236840F2FF519963A36B0343A363A2
:1012B400012084F8340043E740F2FF529A63A36BA1
:1012C40043F00803A363012084F8340038E740F2B4
:1012D400FF529A63A36B43F00203A363012084F8D3
:1012E40034002DE740F2FF529A63012384F834302E
:1012F400002025E730B4436E9A0F0A70C3F383626B
:101304004A70C3F301638B7090F86630CB7090F829
:1013140065300B7190F864304B7190F86B301B01A1
:10132400CB80B0F86A30CC88C3F303122243CA805E
:1013340003F00F030B7290F86930DA094A72C3F3B1
:1013440080128A72C3F34012CA72C3F300120A7382
:1013540000224A73426C002A40F092809B0203F4FC
:1013640040630B61836E0A699B0003F47F7313432C
:101374000B61C36E0A6942EA93720A61C3F3C262E3
:101384000A75C3F302634B75C26EC2F30743C2F31B
:1013940042548C75C2F38242CA755B0003F00603A3
:1013A4000B76C26EC2F307230C7EC2F3C032224313
:1013B4000A760A69013242650C7E023402FA04F4A8
:1013C40044650A7AD5B20122AA408265520A02FB18
:1013D40004F2C2654FF400720266C3F380124A76C7
:1013E4005B0003F07E038B76C36E8A7EC3F3C01466
:1013F40022438A7603F07F03CB76036F1A0EDC0F49
:101404000C77C3F341744C77C3F382638B779300F7
:1014140003F00C03CB77036FCA7FC3F381542243D9
:10142400CA77C3F3405281F82020002281F821209A
:10143400C3F3004381F82230036FC3F3C03481F84F
:101444002340C3F3803481F82440C3F3403481F84B
:101454002540C3F3003481F82640C3F3812481F886
:101464002740C3F3012381F82830036FC3F34603F5
:1014740081F82930012381F82A30104630BC7047A6
:10148400012A0CD0036840F2FF529A63836B43F045
:1014940080538363012280F834201046EEE7836E84
:1014A4001B0403F47C130B6190F86F200B6943EA6F
:1014B40002230B610A6990F86E3013430B6190F8B4
:1014C4006D300A69013292024265C2654FF40072BE
:1014D4008265026681E770B590B004460123ADF8D9
:1014E4001230006800F0B0F900286AD0636C032B56
:1014F40043D1636C032B5BD1636C032B1DD0BDF80C
:10150400121021650904206800F0E8FB0546002854
:1015140059D10021206800F0B0F9606604212068E8
:1015240000F0ABF9A0660821206800F0A6F9E06697
:101534000C21206800F0A1F920670421206800F044
:101544009CF9000DE06405A92046FFF7D3FE226D47
:1015540012040023206800F039FB054698BB23469B
:1015640053F8106B93E807008DE80700043494E8FF
:101574000E00304600F040F925E0206800F099FBA9
:10158400054600BB0021206800F077F9606704215C
:10159400206800F072F9A0670821206800F06DF956
:1015A400E0670C21206800F068F9C4F88000A0E727
:1015B4000DF11201206800F0A6FB054600289BD01F
:1015C40001E04FF08065284610B070BD70B58AB058
:1015D40005460024049405940694079408947623FD
:1015E40009930AAB13E907008DE8070004AB0ECB9F
:1015F400286800F001F9124E3460286800F020F9E0
:10160400012333600220FEF7B3FF2846FFF7F2FB05
:1016140040B10246012085F83400AB6B1343AB6341
:101624000AB070BD2846FFF756FF024630B10120CC
:1016340085F83400AB6B1343AB63F1E70020EFE7AD
:10164400A0802542A8B110B5044690F8343063B1A7
:10165400032384F834302046FFF7B8FF0020A0634A
:101664002063012384F8343010BD037702F03CF882
:10167400EEE701207047436C0B60836C4B60C36CD6
:101684008B60036DCB60436D0B61836D4B61C36DE8
:101694008B61036ECB610020704710B582B00446A5
:1016A40002A9002341F8043DFFF712FC18B10346D8
:1016B400A06B1843A0630198C0F3432002B010BD8F
:1016C4000C4B1B680C4AA2FB03235A0A41F28833D1
:1016D40003FB02F35A1E4BB1416B134611F0800F0A
:1016E400F8D040F2FF538363002070474FF000406E
:1016F400704700BF0C000020D34D6210144B1B68D0
:10170400144AA2FB03235A0A41F2883303FB02F36F
:101714005A1ECBB1416B134611F0450FF8D0436B01
:1017240013F0040F08D1436B13F0010F08D140F2FA
:10173400FF53836300207047042383631846704774
:1017440001238363184670474FF00040704700BF81
:101754000C000020D34D6210104B1B68104AA2FBF2
:1017640003235A0A41F2883303FB02F35A1E8BB156
:10177400416B134611F0450FF8D0436B13F0040F7F
:1017840004D140F2FF538363002070470423836332
:10179400184670474FF00040704700BF0C0000200F
:1017A400D34D6210124B1B68124AA2FB03235A0A40
:1017B40041F2883303FB02F35A1EA3B1416B134673
:1017C40011F0450FF8D0436B13F0040F07D1436BAE
:1017D40013F0400F0AD04023836300207047402356
:1017E4008363042070474FF0004070470020704727
:1017F4000C000020D34D621084B010B402AC84E815
:101804000E000B46039A1343049A1343059A134399
:10181400069A1343079A1343426822F4FD4222F0C6
:101824007F021343436000205DF8044B04B070470B
:10183400D0F8800070470B68C0F8803000207047F3
:101844000323036000207047006800F00300704722
:101854000B6883604B688A681343CA6813430A6938
:101864001343C26822F47F6222F00F021343C36061
:10187400002070470069C0B2704782B00023019312
:10188400143001440191019B186802B070470000B4
:1018940038B5514B1B68514CA4FB03435B0A02FB54
:1018A40003F2531E002A5ED0446B1A4614F0450F0F
:1018B400F7D0436B13F0040F07D1436B13F0010F00
:1018C40007D00123836318464FE00423836318463B
:1018D4004BE00D460446FFF7CDFFA84201D001209E
:1018E40043E040F2FF53A36300212046FFF7C5FF06
:1018F4003B4B0340D3B300283ADB10F0804F3AD17E
:1019040010F0005F39D110F0805F38D110F0006F13
:1019140038D110F0806F38D110F0807F38D110F4B6
:10192400000F38D110F4800F38D110F4001F38D1D3
:1019340010F4801F38D110F4802F38D110F4003FF8
:1019440038D110F4803F38D110F4004F38D110F45E
:10195400804F38D110F4005F38D110F0080F38D020
:101964004FF4000001E04FF0004038BD0020FCE7D8
:101974004FF00070F9E74020F7E78020F5E74FF4D7
:101984008070F2E74FF40070EFE74FF48060ECE70B
:101994004FF40060E9E74FF48050E6E74FF400505D
:1019A400E3E74FF48040E0E74FF40040DDE74FF415
:1019B4000030DAE74FF48020D7E74FF40020D4E773
:1019C4004FF48010D1E74FF40010CEE74FF48000BD
:1019D400CBE74FF48030C8E70C000020D34D6210F1
:1019E40008E0FFFD70B5254B1B68254CA4FB0343A1
:1019F4005C0A41F2883303FB04F35C1EA3B3456B1A
:101A0400234615F0450FF8D0436B13F0040F07D1AC
:101A1400436B13F0010F07D001238363184625E0BD
:101A240004238363184621E016460D460446FFF757
:101A340021FFA84201D0012018E040F2FF53A36324
:101A440000212046FFF719FF10F4604F08D010F46E
:101A5400804F0CD110F4004F0CD04FF4805005E0AF
:101A6400000C3080002001E04FF0004070BD4FF4C6
:101A74000050FBE74FF48030F8E700BF0C00002073
:101A8400D34D62100B6843624B6883628B68CA68EB
:101A940013430A6913434A691343C26A22F0F702E3
:101AA4001343C3620020704730B587B005460191E7
:101AB4001024029440230393002304934FF480637F
:101AC400059301A9FFF7C4FE41F288322146284656
:101AD400FFF7DEFE07B030BD30B587B00546019193
:101AE4001124029440230393002304934FF480634E
:101AF400059301A9FFF7ACFE41F28832214628463E
:101B0400FFF7C6FE07B030BD30B587B0054601917A
:101B14001224029440230393002304934FF480631C
:101B2400059301A9FFF794FE41F288322146284625
:101B3400FFF7AEFE07B030BD30B587B00546019162
:101B44001824029440230393002304934FF48063E6
:101B5400059301A9FFF77CFE41F28832214628460D
:101B6400FFF796FE07B030BD30B587B0054601914A
:101B74001924029440230393002304934FF48063B5
:101B8400059301A9FFF764FE41F2883221462846F5
:101B9400FFF77EFE07B030BD30B587B005460023A1
:101BA40001930C2402944022039204934FF4806323
:101BB400059301A9FFF74CFE034A21462846FFF787
:101BC40067FE07B030BD00BF00E1F50530B587B052
:101BD40005460192072402944023039300230493AF
:101BE4004FF48063059301A9FFF732FE41F2883276
:101BF40021462846FFF74CFE07B030BD10B586B02D
:101C04000446002301930293039304934FF48063E7
:101C1400059301A9FFF71CFE2046FFF751FD06B00E
:101C240010BD10B586B004464FF4D5730193082354
:101C3400029340230393002304934FF4806305939A
:101C440001A9FFF705FE2046FFF7ACFD06B010BD65
:101C540030B587B00546019137240294402303939D
:101C6400002304934FF48063059301A9FFF7F0FD6B
:101C740041F2883221462846FFF70AFE07B030BDFC
:101C840010B586B0044641F0004141F48011019141
:101C94002923029340230393002304934FF4806386
:101CA400059301A9FFF7D4FD2046FFF755FD06B0C3
:101CB40010BD10B586B0044600230193022202929F
:101CC400C022039204934FF48063059301A9FFF7A4
:101CD400BFFD2046FFF712FD06B010BD10B586B05B
:101CE4000446019109230293C02303930023049320
:101CF4004FF48063059301A9FFF7AAFD2046FFF77F
:101D0400FDFC06B010BD70B586B005460E46002336
:101D14000193032402944022039204934FF48063BA
:101D2400059301A9FFF794FD324621462846FFF7A3
:101D340059FE06B070BD30B587B0054601910D243B
:101D4400029440230393002304934FF48063059388
:101D540001A9FFF77DFD41F2883221462846FFF7AD
:101D640097FD07B030BD000008B5044B03EB8002BB
:101D7400526852680344187A904708BD5400002002
:101D840008B5084B1B5C53B9064B01221A5403EBEC
:101D94008002526812681844007A904708BD0020F7
:101DA400FCE700BF5400002038B5044C04EB800568
:101DB4006D68AD680444207AA84738BD54000020FB
:101DC40038B5044C04EB80056D68ED680444207A52
:101DD400A84738BD5400002010B5044B03EB800421
:101DE400646824690344187AA04710BD5400002095
:101DF4004278007840EA02207047C278837843EA48
:101E04000222437843EA0223007840EA0320704721
:101E14000170090A417070470170C1F307234370D0
:101E2400C1F307438370090EC170704713462AB18A
:101E34000A78027001300131013BF9D17047017019
:101E44000130013AFBD1704730B4451C037808785F
:101E54001B1A013A04D04C1C28462146002BF4D00E
:101E6400184630BC704700E0013003780BB18B4258
:101E7400FAD118467047000030B400252B4601E023
:101E840001250133012B15D81A01174CA258002A39
:101E9400F6D00468A242F4D1134A02EB0312546848
:101EA40082689442EDD1104A02EB031294684269AD
:101EB4009442E6D1022B0AD0A1B90B4A02EB0313D8
:101EC4009B89B3F5807F07D0002030BC70472DB9C3
:101ED400022905D10020F8E71020F6E70020F4E7F6
:101EE4001220F2E71020F0E72C000020002000E090
:101EF4000130012804D80301034AD358002BF7D139
:101F0400023818BF012070472C00002070B4002351
:101F140000E00133012B13D81A01244CA4580268A1
:101F24009442F6D1214A02EB031254688268944227
:101F3400EFD11E4A02EB0312946842699442E8D13D
:101F4400022B29D021B1194A02EB0312928952BB08
:101F540021BB164A02EB03129189013189B2134A5B
:101F640002EB03129181581C70BC70470133012BA2
:101F740004D81A010D4CA258002AF7D1022B10D014
:101F840006680A4D1C012A192E5184685460406960
:101F9400906000209081D5E70023E8E74FF480713A
:101FA400DDE70020E0E70020DEE700BF2C00002092
:101FB4000138012815D80D4B03EB00139B89B3F5A9
:101FC400807F03D01BB1013B9BB200E00023074A92
:101FD40002EB0012938133B903010020034AD0506D
:101FE4007047022070470020704700BF2C0000207B
:101FF400002303E05DF8044B70470133012B11D833
:102004001A0109498A588242F7D110B41A010024EE
:102014008C500133012BEDD81A0103498A588242AE
:10202400F7D1F3E7704700BF2C0000200239436961
:10203400023B8B4204D94389806A01FB0300704749
:10204400002070470268C36A0433490A5289B1FB0D
:10205400F2F1186830B1814202D3091A0833F8E763
:1020640058680844704770B506460D4601F11A00D9
:10207400FFF7BEFE3378032B00D070BD044605F194
:102084001400FFF7B5FE44EA0040F6E770B50646D3
:102094000C46154691B204F11A00FFF7B9FE3378E5
:1020A400032B00D070BD290C04F11400FFF7B0FE1F
:1020B400F8E700002DE9F84F82468B460F6800F1DF
:1020C40024090B2220214846FFF7B9FE0026334697
:1020D4004FF008082CE001357B5D2F2BFBD05C2BE7
:1020E400F9D03D44CBF80050002E43D09AF8243068
:1020F400E52B35D0202C37D804238AF82F30002044
:1021040028E008264FF00B0811E014F0800F23D1CB
:1021140021461948FFF7A7FE50BBA4F16103DBB2C7
:10212400192B01D8203CE4B209F8064001362B46AD
:102134005D1CFC5C202CD4D92F2CCDD05C2CCBD0B6
:102144002E2C01D0B045E0D8B8F10B0F0ED02E2CB8
:10215400D7D00620BDE8F88F803C084B1C5DD7E73C
:1021640005238AF82430C5E70023C6E70620F1E7F3
:102174000620EFE70620EDE7403900087438000830
:10218400016809B10A4603E04FF0FF3308E0013269
:102194001378202B01D93A2BF9D13A2B02D0002302
:1021A4001846704710B44C1C0B78303B092B08D8E8
:1021B400A24209D15BB90132026018465DF8044BB2
:1021C40070474FF0FF33F8E74FF0FF33F5E74FF078
:1021D400FF33F2E70160002343608360704738B542
:1021E4000D4640B1044603682BB11A781AB1D98858
:1021F4008288914203D000232B60092038BD58788F
:10220400FFF7B2FD10F0010FF5D123682B60002019
:10221400F4E7F8B5C3780BB90020F8BD0446C56AE5
:1022240000F1300701232A4639464078FFF7C8FDFC
:10223400A8B90023E370236AEB1AA269934210D26F
:10224400A678012E09D9A3691D4401232A463946DB
:102254006078FFF7B5FD013EF3E70020DDE70120DC
:10226400DBE70020D9E770B5C36A8B4212D004467D
:102274000D46FFF7CEFF064668B901232A4604F14E
:1022840030016078FFF790FD10B101264FF0FF3563
:10229400E56200E00026304670BD000010B504463B
:1022A4000023C3704FF0FF33C362FFF7DCFF18BB9A
:1022B40004F22E20FFF79CFD4AF6552398421DD1C7
:1022C40094F83030E92B05D0236B03F0FF130F4A49
:1022D400934215D104F16600FFF78FFD20F07F4093
:1022E4000B4B98420ED004F18200FFF786FD094B98
:1022F400984209D1002002E0042000E0032010BD30
:102304000220FCE70020FAE70220F8E7EB00900047
:1023140046415400464154332DE9F04784B00F46FA
:10232400164600230B60FFF72BFF051EC0F2458104
:10233400B74B03EB85031C6A002C00F042813C6020
:1023440006F0FE06237873B16078FFF70DFD10F0F8
:10235400010F08D1002E00F0368110F0040F40F078
:10236400348100202AE100232370E8B26070FFF773
:1023740007FD10F0010F40F02A811EB110F0040F88
:1023840040F0278100212046FFF788FF022800F053
:10239400B6800026042800F01E81012800F21D8169
:1023A40004F13B00FFF724FDB0F5007F40F01781F6
:1023B40004F14600FFF71CFD074620B904F1540060
:1023C400FFF71BFD0746A76194F84020A270531E37
:1023D400DBB2012B00F2058107FB02F594F83D8086
:1023E400A4F80A80B8F1000F00F0FD8008F1FF3373
:1023F40018EA030F40F0F98004F14100FFF7F8FCFC
:102404008246208110F00F0F40F0F18004F1430068
:10241400FFF7EEFC814620B904F15000FFF7EDFC14
:10242400814604F13E00FFF7E3FC0146002800F07A
:10243400E080421902EB1A129145C0F0DC80A9EB4E
:102444000203B3FBF8F3002B00F0D7804FF6F570CE
:1024540083426CD94FF0030940F6F570834201D8EA
:102464004FF0010903F10208C4F81480E6618B19E6
:1024740023623244A262B9F1030F5BD0BAF1000FB8
:1024840000F0C1802B446362B9F1020F63D008EB02
:10249400480208F0010303EB520303F2FF13B7EB06
:1024A400532FC0F0B2804FF0FF332361E3608023E9
:1024B4002371B9F1030F51D084F80090544A938CDE
:1024C40001339BB29384E3802046FFF791FD002003
:1024D40074E0002004AB03EB850343F8100C0135D2
:1024E400032D0ED804F130002B0103F5DF731844DB
:1024F4000379002BEDD00830FFF77FFCEAE70025D5
:10250400EEE700250AE031462046FFF7C7FE012822
:102514007FF640AF0135032D3FF63CAF04AB03EB30
:10252400850353F8106C002EEDD10320F2E74FF031
:10253400020991E704F15A00FFF75AFC00285ED122
:10254400BAF1000F5DD104F15C00FFF756FC606244
:102554004FEA8803A1E74FEA48039EE704F16000CD
:10256400FFF746FC0128A7D1711C2046FFF77BFE2C
:102574000028A1D10023237104F22E20FFF738FC98
:102584004AF65523984297D104F13000FFF735FC01
:10259400204B984290D104F50570FFF72EFC1E4B9A
:1025A400984289D104F50670FFF727FC206104F5F1
:1025B4000770FFF722FCE0607EE70B2004B0BDE863
:1025C400F0870C20FAE70020F8E70A20F6E703205A
:1025D400F4E70A20F2E70120F0E70D20EEE70D20F2
:1025E400ECE70D20EAE70D20E8E70D20E6E70D20F3
:1025F400E4E70D20E2E70D20E0E70D20DEE70D2003
:10260400DCE70D20DAE70D20D8E70D20D6E700BF80
:102614002C00002052526141727241612DE9F04751
:1026240001297AD943698B4279D917460C46064663
:102634000378022B43D0032B54D0012B01D0022565
:102644006EE001EB5108016A01EB5821FFF70BFE24
:102654000546002864D106F1300A08F10109C8F3DF
:10266400080814F001041FD01AF9083003F00F030E
:102674003A0102F47F621343DBB20AF80830012303
:10268400F370316A01EB59213046FFF7ECFD054642
:10269400002845D1C9F3080944B1C7F307120AF861
:1026A40009200123F3703BE0FBB2E6E71AF90920A5
:1026B40022F00F02C7F303273A43D2B2EFE7016ACD
:1026C40001EB1421FFF7CFFD054648BB06F13000AE
:1026D400640004F4FF74B9B22044FFF799FB0123AA
:1026E400F3701DE0016A01EBD411FFF7BCFD054650
:1026F400B0B927F0704706F13003A10001F4FE7170
:102704005C182046FFF779FB00F0704139432046FE
:10271400FFF782FB0123F37002E0022500E00225AB
:102724002846BDE8F087F8B50668012953D97369CE
:102734008B4252D90C463378022B2BD0032B39D041
:10274400012B01D0012047E001EB5105316A01EB77
:1027540055213046FFF787FD002840D16F1CC5F393
:102764000805354495F83050316A01EB572130465D
:10277400FFF779FDB0BBC7F30803334493F8300087
:1027840045EA002014F0010F01D0000924E0C0F351
:102794000B0021E0316A01EB14213046FFF763FDA1
:1027A40018BB06F13000610001F4FF710844FFF723
:1027B4001FFB11E0316A01EBD4113046FFF753FDE2
:1027C400B0B93036A10001F4FE703044FFF715FBB8
:1027D40020F0704000E00120F8BD0120FCE74FF03C
:1027E400FF30F9E74FF0FF30F6E74FF0FF30F3E743
:1027F4004FF0FF30F0E72DE9F0410768B1F5001F15
:102804003BD206460D4611F01F0F39D17161846821
:102814001CB93B78022B00D97C6A94B93B89B3EB91
:10282400551F2FD97B6AF361B461F36993B303EB4A
:102834005523F3613037C5F308053D443562002064
:102844001CE0B7F80A804FEA482845450FD32146D3
:102854003046FFF768FF0446B0F1FF3F14D001286B
:1028640014D97B69834213D9A5EB0805EDE721460A
:102874003846FFF7DBFBF061D6E70220BDE8F081C4
:102884000220FBE70220F9E70120F7E70220F5E741
:102894000220F3E70220F1E72DE9F041074606683C
:1028A400884631B9F5688DB17369AB420FD80125FB
:1028B4000DE0FFF738FF0346012847D9B0F1FF3F89
:1028C40049D07269824246D8454600E001252C462B
:1028D4000CE021463846FFF726FF034670B1012875
:1028E40039D0B0F1FF3F36D0AC4233D001347369F4
:1028F400A342EED8012D2BD90224EAE74FF0FF3290
:1029040021463046FFF78AFE034610B9B8F1000F9E
:102914000ED1A3B9F46032697369023B9A4201D8BB
:10292400013A3261337943F001033371234612E0F3
:10293400224641463046FFF771FE0346E9E7012B84
:1029440001D0012307E04FF0FF3304E0012302E04C
:10295400002300E000231846BDE8F081F8B50E46D8
:10296400056801292ED9074611466B69B3422CD953
:1029740052B14FF0FF322846FFF750FE844618B19B
:1029840025E02646A24222D931463846FFF7CBFE3F
:102994000446F0B101281FD0B0F1FF3F1FD0002240
:1029A40031462846FFF73AFE844680B92B696A69A6
:1029B400911E8B42E5D201332B612B7943F0010345
:1029C4002B71DEE74FF0020C01E04FF0020C604681
:1029D400F8BD4FF0000CFAE74FF0020CF7E74FF0A8
:1029E400010CF4E72DE9F84306684569C369002B37
:1029F4006ED02035B5F5001F6CD288460446C5F369
:102A040008073FB90133C361816979B93389B3EBED
:102A1400551F07D9656106F130033B44236200204A
:102A2400BDE8F8830023C3610420F9E77389013BFF
:102A340013EA5523EED1FFF776FE814601284BD9E0
:102A4400B0F1FF3F4AD07369834239D8B8F1000F1F
:102A540011D0A1692046FFF71FFF814600283FD00F
:102A640001283FD0B0F1FF3F3ED03046FFF7D1FB05
:102A740028B10120D4E70023E3610420D0E74FF418
:102A84000072002106F13000FFF7D9F949463046BB
:102A9400FFF7CCFAF0624FF00008738998450BD227
:102AA4000123F3703046FFF7B4FBF8B908F10108CD
:102AB400F36A0133F362F0E7F36AA3EB0803F3620A
:102AC400C4F8189049463046FFF7B0FAE061A1E730
:102AD4000420A5E70420A3E70220A1E701209FE743
:102AE40007209DE702209BE7012099E7012097E753
:102AF40070B5044606680021FFF77DFE054640B127
:102B0400284670BD00212046FFF76CFF05460028CB
:102B1400F6D1E1693046FFF7A6FB05460028EFD160
:102B2400206A03787BB1C37A03F03F03A371C37AAD
:102B340013F0080FE6D10B2204F12401FFF784F906
:102B44000028DFD1DCE70425DAE730B583B004469A
:102B54000191056801E001330193019B1A782F2A42
:102B6400F9D05C2AF7D00022A2601B781F2B1ED953
:102B740001A92046FFF79EFA034600BB2046FFF753
:102B8400B7FF94F82F200346E0B912F0040F16D1D2
:102B9400A37913F0100F1CD005F130016369C3F35E
:102BA400080319442846FFF75EFAA060E0E7802393
:102BB40084F82F3011462046FFF71DFE03461846C1
:102BC40003B030BD0428FAD112F0040FF7D1052365
:102BD400F5E70523F3E7F8B504460F460668002138
:102BE400FFF709FE0346C0B9002508E00135BD42E0
:102BF40013D001212046FFF7F5FE034668B9E169C9
:102C04003046FFF730FB034638B9226A1278E52ACA
:102C1400ECD0002AEAD00025EBE7042B01D01846BB
:102C2400F8BD0723FBE770B5044606680121FFF7EA
:102C3400D2FF054608B1284670BDE1693046FFF76A
:102C440012FB05460028F6D120220021206AFFF756
:102C5400F6F80B2204F12401206AFFF7E7F80123B8
:102C6400F370E8E770B50446FFF7D3FA054648B9B0
:102C74002378032B08D0002211466078FFF7ACF8C4
:102C840000B10125284670BD2379012BF3D104F14D
:102C940030064FF4007200213046FFF7D0F84AF6B0
:102CA400552104F22E20FFF7B3F80F493046FFF701
:102CB400B3F80E4904F50570FFF7AEF8216904F581
:102CC4000670FFF7A9F8E16804F50770FFF7A4F8A8
:102CD400E2690132E262012331466078FFF770F85D
:102CE40000232371C7E700BF5252614172724161F0
:102CF40070B584B001900091164604A840F8041DF4
:102D0400FFF73EFA041E1EDB114B03EB84031D6A1E
:102D140025B12846FFF76CF900232B70019B0BB1FA
:102D240000221A70019B0A4800EB8400036263B11D
:102D3400012E02D0002004B070BD002201A9684613
:102D4400FFF7EAFAF7E70B20F5E70020F3E700BF07
:102D54002C0000202DE9F04391B00191002800F0EF
:102D64000B810546164602F03F073A4603A901A81F
:102D7400FFF7D2FA044630B10CB100232B60204691
:102D840011B0BDE8F083039B0493019904A8FFF7F5
:102D9400DCFE044660B99DF93F30002B51DB37F06F
:102DA400010314BF0121002104A8FFF765F80446BC
:102DB40016F01C0F5BD0002C4FD0042C43D047F0EE
:102DC4000807002C62D117F0080F5FD000F0FAFA60
:102DD400064601460C980E30FFF71EF831460C9853
:102DE4001630FFF719F80C9B2022DA72039EDDF8E7
:102DF400308041463046FFF736F98146002241468D
:102E04003046FFF743F900210C981C30FFF704F813
:102E1400039B0122DA70B9F1000F37D0039BDE6AFD
:102E24000022494604A8FFF799FD044670BB3146C9
:102E34000398FFF718FA044609F1FF33039AD360A5
:102E440024E00624B4E7FFF751F808B91224B6E7E2
:102E540004A8FFF7E8FE0446B1E79DF8163013F026
:102E6400110F12D116F0040FABD008240EE06CB988
:102E74009DF8163013F0100F4CD116F0020F05D048
:102E840013F0010F02D0072416E00724A4B917F0A9
:102E9400080F01D047F04007039BDB6A6B620C9B71
:102EA400AB6237F0010314BF0121002104A8FFF72E
:102EB4002DF8286100285DD0002C7FF45DAF039EBF
:102EC400DDF8308041463046FFF7CDF8A86008F1C0
:102ED4001C00FEF792FFE8600021E9622E60F3888F
:102EE400AB802F7569752962A96105F130084FF42B
:102EF40000724046FEF7A3FF17F0200F3FF43CAFEB
:102F0400EE68002E3FF438AFAE61039B5F897F0209
:102F1400A96805E00424CFE7B1F1FF3F0BD0F61B0D
:102F24005CB9BE4209D92846FFF7FDFB01460128DA
:102F3400F2D80224F0E70124F1E7E961002C7FF4E0
:102F44001BAFC6F30803002B3FF416AF039F3846AC
:102F5400FFF76CF808B902240FE700EB56222A6247
:102F6400012341467878FEF71FFF00283FF404AFA1
:102F7400012402E70224FFE6092400E72DE9F04FCB
:102F840085B004468846154699460023C9F80030A2
:102F9400009003A9FFF723F90746002842D1677D73
:102FA400002F3FD1237D13F0020F00F0C880A369E6
:102FB400EB42C0F09A80DD4397E0E36A002B35D002
:102FC4002046FFF73FF8002800F0B480012832D0F3
:102FD400B0F1FF3F32D0E061A36803B9A06094F977
:102FE4001430002B2DDB039B0193E1691846FFF796
:102FF4001DF88246002835D0B2445FEA552B49D0EB
:1030040006EB0B03019A5289934201D9A2EB060BFA
:103014005B465246414601984078FEF7D1FE20B304
:1030240001276775384605B0BDE8F08FE16900985F
:10303400FFF732FCC7E702276775F3E701276775D7
:10304400F0E70123226A04F1300103984078FEF787
:10305400B7FE20B9237D03F07F032375C3E701275F
:103064006775DFE702276775DCE7216AA1EB0A01D0
:10307400594502D34FEA4B2628E04FF4007208EB7F
:10308400412104F13000FEF7D1FE237D03F07F03DC
:103094002375EFE7236A534503D0A269E3689A4294
:1030A4003BD3C4F820A0A369C3F30803C3F5007697
:1030B400B54200D22E4604F130003246414618444F
:1030C400FEF7B4FE237D63F07F032375B044A36948
:1030D4003344A361E268934238BF1346E360D9F8EE
:1030E40000303344C9F80030AD1B1DB3A169C1F3EE
:1030F4000803002BD7D1039B5E89013E16EA5126B3
:103104007FF46DAF00297FF458AFA06800287FF4E6
:103114005AAF0098FFF7C0FB55E70123524604F16C
:10312400300101984078FEF73FFE0028B9D001270E
:10313400677577E7237D43F04003237572E707271C
:1031440070E770B582B004460D460A290DD0636855
:10315400002B08DB5E1C23441D733C2E09DC6660D7
:10316400A3680133A36002B070BD0D21FFF7E9FF2E
:10317400EDE701AB324604F10C012068FFF7FEFED7
:10318400019B9E4202D04FF0FF36E8E70026E6E7B7
:103194004268002A10DB10B582B0044601AB00F18E
:1031A4000C010068FFF7EAFE48B96268019B9A4285
:1031B40008D1A06802B010BD4FF0FF3070474FF047
:1031C400FF30F7E74FF0FF30F4E770B582B0044604
:1031D40001A9FFF704F8034678B9227D12F0400FE5
:1031E4000BD012F0800F0BD100F0ECF80646616AA8
:1031F4000198FFF738F8034680B1184602B070BD55
:103204000123226A04F1300101984078FEF7D8FDC9
:1032140048BB237D03F07F032375E5E7A56AEB7ABA
:1032240043F02003EB72A26829462068FEF72EFFC4
:10323400E16805F11C00FEF7EFFD314605F11600CB
:10324400FEF7EAFD002105F11200FEF7E1FD019B06
:103254000122DA700198FFF705FD0346227D22F072
:1032640040022275C9E70123C7E710B582B00446BE
:10327400FFF7ABFF034610B1184602B010BD01A919
:103284002046FEF7ACFF03460028F5D12069FEF77F
:103294008FFE03460028EFD100222260ECE710B530
:1032A40094B0044601A8FEF795FF03E0013401A899
:1032B400FFF747FF21780029F8D101A8FFF768FF3D
:1032C40014B010BD104B5B7ADBB930B40E4B5D7A91
:1032D400EDB200245C555D7A03EB85056860587A8D
:1032E400184402725A7AD2B2501CC0B258723032A8
:1032F4000A703A234B702F238B70CC70204630BC5D
:1033040070470120704700BF5400002008B5002218
:10331400FFF7D8FF08BD000000B583B00093134643
:103324000A4601460348FDF7E9FD00B1012003B058
:103334005DF804FBFC06002000B583B0009313463F
:103344000A4601460348FDF7E6FE00B1012003B03A
:103354005DF804FBFC06002008B50348FEF79DF960
:10336400043818BF012008BDFC06002008B501463A
:103374000148FEF780F908BDFC06002082B0012355
:103384008DF807309DF8070002B0704708B5FFF7C5
:10339400F5FF012801D0012008BD0248FEF752F9CB
:1033A400FAE700BFFC06002008B503490348FFF70D
:1033B400ADFF034B187008BD6800002014390008E5
:1033C4006400002000207047054B064A1A60002262
:1033D4005A609A60DA601A615A619A61704700BF54
:1033E400FC060020002C014084B000220192104B06
:1033F400196B41F004011963196B01F00401019187
:1034040001990292196B41F080011963196B01F063
:1034140080010291029903921A6B42F008021A6326
:103424001B6B03F008030393039B04B0704700BFB6
:1034340000380240FEE7000000B595B0002201927A
:103444002A4B196C41F0805119641B6C03F08053B2
:103454000193019B029226490B6823F4404343F4F1
:1034640000430B600B6803F440430293029B022168
:10347400089101230B9310230C930E910F92109338
:103484004FF4A8731193042312930723139308A8EA
:10349400FDF7C6F908BB0F2303930221049100230F
:1034A40005934FF480520692079303A8FDF7F0FBAF
:1034B400B8B9FDF799FC0F4BA3FB00308009FDF769
:1034C400B1F80420FDF7C4F8002211464FF0FF3094
:1034D400FDF774F815B05DF804FBAB210648FFF75F
:1034E400A9FFB9210448FFF7A5FF00BF0038024037
:1034F40000700040D34D62108439000808B5FDF710
:103504000BF8FFF799FFFFF76FFFFFF75DFFFFF77A
:103514004BFF01220C490D48FFF7EAFB0C4B1870D6
:103524000C4C13220C492046FFF714FC21460B488F
:10353400FFF7B5FE2046FFF798FE01220849002058
:10354400FFF7D6FBFEE700BF94390008CC04002047
:10355400800700208407002098390008A839000853
:10356400C039000808B5074B01221A70FFF7F4FEB2
:1035740020B9044A137803F0FE031370014B187842
:1035840008BD00BF0800002010B50446074B012207
:103594001A70FFF7FBFE10B1044B187810BD2046DB
:1035A400FFF7E0FF014B1870F6E700BF08000020AA
:1035B40008B5FFF7D7FF08BD08B5084611461A46F7
:1035C4004FF0FF33FFF7A8FE20B9FFF7C5FE002830
:1035D400FBD108BD0120FCE708B5084611461A4690
:1035E4004FF0FF33FFF7A8FE20B9FFF7B5FE002820
:1035F400FBD108BD0120FCE7154B1B7813F0010F2C
:1036040021D110B588B0144603291ED8DFE801F093
:1036140002050C13002008B010BD6846FFF7A6FE93
:10362400069B23600020F6E76846FFF79FFE079B92
:1036340023800020EFE76846FFF798FE079B5B0AAC
:1036440023600020E7E7032070470420E3E700BF7E
:103654000800002010B582B000240094214B5A6C5D
:1036640042F480425A645A6C02F480420092009AF6
:1036740001941A6C42F080521A641B6C03F080535C
:103684000193019B0720FCF787FF224621466FF038
:103694000B00FCF793FF224621466FF00A00FCF76B
:1036A4008DFF224621466FF00900FCF787FF224672
:1036B40021466FF00400FCF781FF224621466FF09B
:1036C4000300FCF77BFF224621466FF00100FCF764
:1036D40075FF224621464FF0FF30FCF76FFF02B022
:1036E40010BD00BF003802400268174B9A4200D058
:1036F4007047F0B587B00024009403F586335A6C04
:1037040042F400625A645B6C03F400630093009B10
:103714004FF48853019302270297039403260496D7
:103724000C25059501A90948FCF7A8FF042301937A
:1037340002970394049605950DEB03010448FCF7E6
:103744009DFF07B0F0BD00BF002C014000080240FF
:10375400000C02407047FEE7FEE7FEE7FEE7704715
:103764007047704708B5FCF7F1FEFCF782FF08BD0F
:103774000F49D1F8883043F47003C1F888300D4BF9
:103784001A6842F001021A60002098601A6822F058
:10379400847222F480321A60074A5A601A6822F44A
:1037A40080221A60D8604FF000638B60704700BFBE
:1037B40000ED00E00038024010300024DFF834D07F
:1037C400002103E00C4B5B58435004310B480C4B75
:1037D40042189A42F6D30B4A02E0002342F8043B13
:1037E400094B9A42F9D3FFF7C3FF00F011F8FFF732
:1037F40085FE704700800120D439000800000020B5
:103804001000002010000020B4090020FEE7000092
:1038140070B50D4E0D4CA41BA4100025A54209D172
:103824000B4E0C4C00F018F8A41BA4100025A54264
:1038340005D170BD56F8253098470135EEE756F8A6
:10384400253098470135F2E7CC390008CC39000817
:10385400CC390008D0390008F8B500BFF8BC08BC62
:103864009E467047F8B500BFF8BC08BC9E4670473A
:1038740043554541414141434545454949494141F4
:103884004592924F4F4F5555594F554F9C4F9E9FC0
:1038940041494F55A5A5A6A7A8A9AAABACADAEAF03
:1038A400B0B1B2B3B4414141B8B9BABBBCBDBEBFFB
:1038B400C0C1C2C3C4C54141C8C9CACBCCCDCECF97
:1038C400D1D145454549494949D9DADBDCDD49DFF0
:1038D4004FE14F4F4F4FE6E8E85555555959EEEF34
:1038E400F0F1F2F3F4F5F6F7F8F9FAFBFCFDFEFF5C
:1038F4000100020004000800100020000000000085
:10390400010004001000400000010002000000005B
:103914008D350008B5350008BD350008DD350008D3
:10392400FD3500080000000000000000010203044F
:10393400060708090000000001020304222A2B2CB8
:103944003A3B3C3D3E3F5B5D7C7F0000EBFE904D8F
:1039540053444F53352E30004E4F204E414D452099
:103964002020204641543332202020004E4F204E48
:10397400414D452020202046415420202020200075
:103984002E2E2F5372632F6D61696E2E630000001B
:1039940030000000303A31737466696C652E7478B7
:1039A40074000000466972737420737472696E67E0
:1039B40020696E206D792066696C650A000000003C
:0839C40040C8FF7F0100000074
:0439CC00B901000835
:0439D0009501000855
:1039D4000100000010000000010000000024F400B9
:04000005080037C1F7
:00000001FF
